{
  "contractName": "SmartStampDuty",
  "abi": [
    {
      "constant": false,
      "inputs": [
        {
          "name": "value",
          "type": "uint256"
        }
      ],
      "name": "_burnToZeroAddress",
      "outputs": [
        {
          "name": "",
          "type": "bool"
        }
      ],
      "payable": false,
      "stateMutability": "nonpayable",
      "type": "function"
    },
    {
      "constant": true,
      "inputs": [],
      "name": "name",
      "outputs": [
        {
          "name": "",
          "type": "string"
        }
      ],
      "payable": false,
      "stateMutability": "view",
      "type": "function"
    },
    {
      "constant": true,
      "inputs": [],
      "name": "zeroAddress",
      "outputs": [
        {
          "name": "",
          "type": "address"
        }
      ],
      "payable": false,
      "stateMutability": "view",
      "type": "function"
    },
    {
      "constant": false,
      "inputs": [
        {
          "name": "spender",
          "type": "address"
        },
        {
          "name": "value",
          "type": "uint256"
        }
      ],
      "name": "approve",
      "outputs": [
        {
          "name": "",
          "type": "bool"
        }
      ],
      "payable": false,
      "stateMutability": "nonpayable",
      "type": "function"
    },
    {
      "constant": true,
      "inputs": [],
      "name": "totalSupply",
      "outputs": [
        {
          "name": "",
          "type": "uint256"
        }
      ],
      "payable": false,
      "stateMutability": "view",
      "type": "function"
    },
    {
      "constant": true,
      "inputs": [
        {
          "name": "stampCode",
          "type": "bytes32"
        },
        {
          "name": "row",
          "type": "uint256"
        }
      ],
      "name": "getPaymentOfStampAtIndex",
      "outputs": [
        {
          "name": "paymentCode",
          "type": "bytes32"
        }
      ],
      "payable": false,
      "stateMutability": "view",
      "type": "function"
    },
    {
      "constant": false,
      "inputs": [
        {
          "name": "from",
          "type": "address"
        },
        {
          "name": "to",
          "type": "address"
        },
        {
          "name": "value",
          "type": "uint256"
        }
      ],
      "name": "transferFrom",
      "outputs": [
        {
          "name": "",
          "type": "bool"
        }
      ],
      "payable": false,
      "stateMutability": "nonpayable",
      "type": "function"
    },
    {
      "constant": true,
      "inputs": [],
      "name": "INITIAL_SUPPLY",
      "outputs": [
        {
          "name": "",
          "type": "uint256"
        }
      ],
      "payable": false,
      "stateMutability": "view",
      "type": "function"
    },
    {
      "constant": true,
      "inputs": [],
      "name": "decimals",
      "outputs": [
        {
          "name": "",
          "type": "uint8"
        }
      ],
      "payable": false,
      "stateMutability": "view",
      "type": "function"
    },
    {
      "constant": false,
      "inputs": [
        {
          "name": "spender",
          "type": "address"
        },
        {
          "name": "addedValue",
          "type": "uint256"
        }
      ],
      "name": "increaseAllowance",
      "outputs": [
        {
          "name": "success",
          "type": "bool"
        }
      ],
      "payable": false,
      "stateMutability": "nonpayable",
      "type": "function"
    },
    {
      "constant": false,
      "inputs": [],
      "name": "unpause",
      "outputs": [],
      "payable": false,
      "stateMutability": "nonpayable",
      "type": "function"
    },
    {
      "constant": false,
      "inputs": [
        {
          "name": "stampCode",
          "type": "bytes32"
        },
        {
          "name": "stampName",
          "type": "string"
        },
        {
          "name": "stampPrice",
          "type": "uint32"
        },
        {
          "name": "regulationReference",
          "type": "string"
        }
      ],
      "name": "createStamp",
      "outputs": [
        {
          "name": "success",
          "type": "bool"
        }
      ],
      "payable": false,
      "stateMutability": "nonpayable",
      "type": "function"
    },
    {
      "constant": true,
      "inputs": [
        {
          "name": "stampCode",
          "type": "bytes32"
        }
      ],
      "name": "getPaymentOfStampCount",
      "outputs": [
        {
          "name": "paymentOfStampCount",
          "type": "uint256"
        }
      ],
      "payable": false,
      "stateMutability": "view",
      "type": "function"
    },
    {
      "constant": true,
      "inputs": [],
      "name": "paused",
      "outputs": [
        {
          "name": "",
          "type": "bool"
        }
      ],
      "payable": false,
      "stateMutability": "view",
      "type": "function"
    },
    {
      "constant": false,
      "inputs": [
        {
          "name": "payCode",
          "type": "bytes32"
        },
        {
          "name": "docHash",
          "type": "string"
        },
        {
          "name": "stampCode",
          "type": "bytes32"
        }
      ],
      "name": "createPayment",
      "outputs": [
        {
          "name": "success",
          "type": "bool"
        }
      ],
      "payable": false,
      "stateMutability": "nonpayable",
      "type": "function"
    },
    {
      "constant": true,
      "inputs": [
        {
          "name": "owner",
          "type": "address"
        }
      ],
      "name": "balanceOf",
      "outputs": [
        {
          "name": "",
          "type": "uint256"
        }
      ],
      "payable": false,
      "stateMutability": "view",
      "type": "function"
    },
    {
      "constant": false,
      "inputs": [],
      "name": "renounceOwnership",
      "outputs": [],
      "payable": false,
      "stateMutability": "nonpayable",
      "type": "function"
    },
    {
      "constant": false,
      "inputs": [],
      "name": "pause",
      "outputs": [],
      "payable": false,
      "stateMutability": "nonpayable",
      "type": "function"
    },
    {
      "constant": true,
      "inputs": [],
      "name": "owner",
      "outputs": [
        {
          "name": "",
          "type": "address"
        }
      ],
      "payable": false,
      "stateMutability": "view",
      "type": "function"
    },
    {
      "constant": true,
      "inputs": [],
      "name": "isOwner",
      "outputs": [
        {
          "name": "",
          "type": "bool"
        }
      ],
      "payable": false,
      "stateMutability": "view",
      "type": "function"
    },
    {
      "constant": true,
      "inputs": [],
      "name": "symbol",
      "outputs": [
        {
          "name": "",
          "type": "string"
        }
      ],
      "payable": false,
      "stateMutability": "view",
      "type": "function"
    },
    {
      "constant": false,
      "inputs": [
        {
          "name": "spender",
          "type": "address"
        },
        {
          "name": "subtractedValue",
          "type": "uint256"
        }
      ],
      "name": "decreaseAllowance",
      "outputs": [
        {
          "name": "success",
          "type": "bool"
        }
      ],
      "payable": false,
      "stateMutability": "nonpayable",
      "type": "function"
    },
    {
      "constant": false,
      "inputs": [
        {
          "name": "to",
          "type": "address"
        },
        {
          "name": "value",
          "type": "uint256"
        }
      ],
      "name": "transfer",
      "outputs": [
        {
          "name": "",
          "type": "bool"
        }
      ],
      "payable": false,
      "stateMutability": "nonpayable",
      "type": "function"
    },
    {
      "constant": true,
      "inputs": [],
      "name": "getPaymentCount",
      "outputs": [
        {
          "name": "paymentCount",
          "type": "uint256"
        }
      ],
      "payable": false,
      "stateMutability": "view",
      "type": "function"
    },
    {
      "constant": true,
      "inputs": [
        {
          "name": "owner",
          "type": "address"
        },
        {
          "name": "spender",
          "type": "address"
        }
      ],
      "name": "allowance",
      "outputs": [
        {
          "name": "",
          "type": "uint256"
        }
      ],
      "payable": false,
      "stateMutability": "view",
      "type": "function"
    },
    {
      "constant": true,
      "inputs": [],
      "name": "getStampCount",
      "outputs": [
        {
          "name": "stampCount",
          "type": "uint256"
        }
      ],
      "payable": false,
      "stateMutability": "view",
      "type": "function"
    },
    {
      "constant": true,
      "inputs": [
        {
          "name": "stampCode",
          "type": "bytes32"
        }
      ],
      "name": "isStamp",
      "outputs": [
        {
          "name": "isIndeed",
          "type": "bool"
        }
      ],
      "payable": false,
      "stateMutability": "view",
      "type": "function"
    },
    {
      "constant": false,
      "inputs": [
        {
          "name": "newOwner",
          "type": "address"
        }
      ],
      "name": "transferOwnership",
      "outputs": [],
      "payable": false,
      "stateMutability": "nonpayable",
      "type": "function"
    },
    {
      "constant": true,
      "inputs": [
        {
          "name": "payCode",
          "type": "bytes32"
        }
      ],
      "name": "isPayment",
      "outputs": [
        {
          "name": "isIndeed",
          "type": "bool"
        }
      ],
      "payable": false,
      "stateMutability": "view",
      "type": "function"
    },
    {
      "inputs": [],
      "payable": false,
      "stateMutability": "nonpayable",
      "type": "constructor"
    },
    {
      "anonymous": false,
      "inputs": [
        {
          "indexed": false,
          "name": "account",
          "type": "address"
        }
      ],
      "name": "Paused",
      "type": "event"
    },
    {
      "anonymous": false,
      "inputs": [
        {
          "indexed": false,
          "name": "account",
          "type": "address"
        }
      ],
      "name": "Unpaused",
      "type": "event"
    },
    {
      "anonymous": false,
      "inputs": [
        {
          "indexed": true,
          "name": "previousOwner",
          "type": "address"
        },
        {
          "indexed": true,
          "name": "newOwner",
          "type": "address"
        }
      ],
      "name": "OwnershipTransferred",
      "type": "event"
    },
    {
      "anonymous": false,
      "inputs": [
        {
          "indexed": true,
          "name": "from",
          "type": "address"
        },
        {
          "indexed": true,
          "name": "to",
          "type": "address"
        },
        {
          "indexed": false,
          "name": "value",
          "type": "uint256"
        }
      ],
      "name": "Transfer",
      "type": "event"
    },
    {
      "anonymous": false,
      "inputs": [
        {
          "indexed": true,
          "name": "owner",
          "type": "address"
        },
        {
          "indexed": true,
          "name": "spender",
          "type": "address"
        },
        {
          "indexed": false,
          "name": "value",
          "type": "uint256"
        }
      ],
      "name": "Approval",
      "type": "event"
    },
    {
      "constant": false,
      "inputs": [
        {
          "name": "account",
          "type": "address"
        },
        {
          "name": "value",
          "type": "uint256"
        }
      ],
      "name": "mint",
      "outputs": [],
      "payable": false,
      "stateMutability": "nonpayable",
      "type": "function"
    },
    {
      "constant": false,
      "inputs": [
        {
          "name": "value",
          "type": "uint256"
        }
      ],
      "name": "burnToZeroAddress",
      "outputs": [],
      "payable": false,
      "stateMutability": "nonpayable",
      "type": "function"
    }
  ],
  "bytecode": "0x60806040523480156200001157600080fd5b5033600360006101000a81548173ffffffffffffffffffffffffffffffffffffffff021916908373ffffffffffffffffffffffffffffffffffffffff160217905550600360009054906101000a900473ffffffffffffffffffffffffffffffffffffffff1673ffffffffffffffffffffffffffffffffffffffff16600073ffffffffffffffffffffffffffffffffffffffff167f8be0079c531659141344cd1fd0a4f28419497f9722a3daafe3b4186f6b6457e060405160405180910390a36000600360146101000a81548160ff0219169083151502179055506200011533600060ff16600a0a6509184e72a000026200011b640100000000026401000000009004565b6200029c565b60008273ffffffffffffffffffffffffffffffffffffffff16141515156200014257600080fd5b62000167816002546200027a640100000000026200224d179091906401000000009004565b600281905550620001ce816000808573ffffffffffffffffffffffffffffffffffffffff1673ffffffffffffffffffffffffffffffffffffffff168152602001908152602001600020546200027a640100000000026200224d179091906401000000009004565b6000808473ffffffffffffffffffffffffffffffffffffffff1673ffffffffffffffffffffffffffffffffffffffff168152602001908152602001600020819055508173ffffffffffffffffffffffffffffffffffffffff16600073ffffffffffffffffffffffffffffffffffffffff167fddf252ad1be2c89b69c2b068fc378daa952ba7f163c4a11628f55a4df523b3ef836040518082815260200191505060405180910390a35050565b60008082840190508381101515156200029257600080fd5b8091505092915050565b61233f80620002ac6000396000f30060806040526004361061018b576000357c0100000000000000000000000000000000000000000000000000000000900463ffffffff16806303b01633146101905780630425ca14146101bd57806306fdde03146102025780630930907b14610292578063095ea7b3146102e957806318160ddd1461034e57806318c104311461037957806323b872dd146103d05780632ff2e9dc14610455578063313ce5671461048057806339509351146104b15780633f4ba83a1461051657806340c10f191461052d57806344ccdde21461057a5780634c2b51c71461065f5780635c975abb146106a4578063667f1437146106d357806370a0823114610770578063715018a6146107c75780638456cb59146107de5780638da5cb5b146107f55780638f32d59b1461084c57806395d89b411461087b578063a457c2d71461090b578063a9059cbb14610970578063af32a03f146109d5578063dd62ed3e14610a00578063ef684c1614610a77578063f143de9514610aa2578063f2fde38b14610aeb578063f6b1e3be14610b2e575b600080fd5b34801561019c57600080fd5b506101bb60048036038101908080359060200190929190505050610b77565b005b3480156101c957600080fd5b506101e860048036038101908080359060200190929190505050610b84565b604051808215151515815260200191505060405180910390f35b34801561020e57600080fd5b50610217610bae565b6040518080602001828103825283818151815260200191508051906020019080838360005b8381101561025757808201518184015260208101905061023c565b50505050905090810190601f1680156102845780820380516001836020036101000a031916815260200191505b509250505060405180910390f35b34801561029e57600080fd5b506102a7610be7565b604051808273ffffffffffffffffffffffffffffffffffffffff1673ffffffffffffffffffffffffffffffffffffffff16815260200191505060405180910390f35b3480156102f557600080fd5b50610334600480360381019080803573ffffffffffffffffffffffffffffffffffffffff16906020019092919080359060200190929190505050610bec565b604051808215151515815260200191505060405180910390f35b34801561035a57600080fd5b50610363610c1c565b6040518082815260200191505060405180910390f35b34801561038557600080fd5b506103b2600480360381019080803560001916906020019092919080359060200190929190505050610c26565b60405180826000191660001916815260200191505060405180910390f35b3480156103dc57600080fd5b5061043b600480360381019080803573ffffffffffffffffffffffffffffffffffffffff169060200190929190803573ffffffffffffffffffffffffffffffffffffffff16906020019092919080359060200190929190505050610c7a565b604051808215151515815260200191505060405180910390f35b34801561046157600080fd5b5061046a610cac565b6040518082815260200191505060405180910390f35b34801561048c57600080fd5b50610495610cbf565b604051808260ff1660ff16815260200191505060405180910390f35b3480156104bd57600080fd5b506104fc600480360381019080803573ffffffffffffffffffffffffffffffffffffffff16906020019092919080359060200190929190505050610cc4565b604051808215151515815260200191505060405180910390f35b34801561052257600080fd5b5061052b610cf4565b005b34801561053957600080fd5b50610578600480360381019080803573ffffffffffffffffffffffffffffffffffffffff16906020019092919080359060200190929190505050610da2565b005b34801561058657600080fd5b506106456004803603810190808035600019169060200190929190803590602001908201803590602001908080601f0160208091040260200160405190810160405280939291908181526020018383808284378201915050505050509192919290803563ffffffff169060200190929190803590602001908201803590602001908080601f0160208091040260200160405190810160405280939291908181526020018383808284378201915050505050509192919290505050610db0565b604051808215151515815260200191505060405180910390f35b34801561066b57600080fd5b5061068e6004803603810190808035600019169060200190929190505050610f06565b6040518082815260200191505060405180910390f35b3480156106b057600080fd5b506106b9610f45565b604051808215151515815260200191505060405180910390f35b3480156106df57600080fd5b506107566004803603810190808035600019169060200190929190803590602001908201803590602001908080601f01602080910402602001604051908101604052809392919081815260200183838082843782019150505050505091929192908035600019169060200190929190505050610f5c565b604051808215151515815260200191505060405180910390f35b34801561077c57600080fd5b506107b1600480360381019080803573ffffffffffffffffffffffffffffffffffffffff16906020019092919050505061120b565b6040518082815260200191505060405180910390f35b3480156107d357600080fd5b506107dc611253565b005b3480156107ea57600080fd5b506107f3611327565b005b34801561080157600080fd5b5061080a6113d6565b604051808273ffffffffffffffffffffffffffffffffffffffff1673ffffffffffffffffffffffffffffffffffffffff16815260200191505060405180910390f35b34801561085857600080fd5b50610861611400565b604051808215151515815260200191505060405180910390f35b34801561088757600080fd5b50610890611458565b6040518080602001828103825283818151815260200191508051906020019080838360005b838110156108d05780820151818401526020810190506108b5565b50505050905090810190601f1680156108fd5780820380516001836020036101000a031916815260200191505b509250505060405180910390f35b34801561091757600080fd5b50610956600480360381019080803573ffffffffffffffffffffffffffffffffffffffff16906020019092919080359060200190929190505050611491565b604051808215151515815260200191505060405180910390f35b34801561097c57600080fd5b506109bb600480360381019080803573ffffffffffffffffffffffffffffffffffffffff169060200190929190803590602001909291905050506114c1565b604051808215151515815260200191505060405180910390f35b3480156109e157600080fd5b506109ea6114f1565b6040518082815260200191505060405180910390f35b348015610a0c57600080fd5b50610a61600480360381019080803573ffffffffffffffffffffffffffffffffffffffff169060200190929190803573ffffffffffffffffffffffffffffffffffffffff1690602001909291905050506114fe565b6040518082815260200191505060405180910390f35b348015610a8357600080fd5b50610a8c611585565b6040518082815260200191505060405180910390f35b348015610aae57600080fd5b50610ad16004803603810190808035600019169060200190929190505050611592565b604051808215151515815260200191505060405180910390f35b348015610af757600080fd5b50610b2c600480360381019080803573ffffffffffffffffffffffffffffffffffffffff1690602001909291905050506115f4565b005b348015610b3a57600080fd5b50610b5d6004803603810190808035600019169060200190929190505050611613565b604051808215151515815260200191505060405180910390f35b610b8081610b84565b5050565b6000610b8e611400565b1515610b9957600080fd5b610ba533600084611675565b60019050919050565b6040805190810160405280601081526020017f536d617274205374616d7020447574790000000000000000000000000000000081525081565b600081565b6000600360149054906101000a900460ff16151515610c0a57600080fd5b610c14838361188e565b905092915050565b6000600254905090565b6000610c3183611592565b1515610c3c57600080fd5b60046000846000191660001916815260200190815260200160002060050182815481101515610c6757fe5b9060005260206000200154905092915050565b6000600360149054906101000a900460ff16151515610c9857600080fd5b610ca38484846119bb565b90509392505050565b600060ff16600a0a6509184e72a0000281565b600081565b6000600360149054906101000a900460ff16151515610ce257600080fd5b610cec8383611b6d565b905092915050565b610cfc611400565b1515610d0757600080fd5b600360149054906101000a900460ff161515610d2257600080fd5b6000600360146101000a81548160ff0219169083151502179055507f5db9ee0a495bf2e6ff9c91a7834c1ba4fdd244a5e8aa4e537bd38aeae4b073aa33604051808273ffffffffffffffffffffffffffffffffffffffff1673ffffffffffffffffffffffffffffffffffffffff16815260200191505060405180910390a1565b610dac8282611da4565b5050565b6000610dba611400565b1515610dc557600080fd5b610dce85611592565b151515610dda57600080fd5b846004600087600019166000191681526020019081526020016000206000018160001916905550836004600087600019166000191681526020019081526020016000206001019080519060200190610e3392919061226e565b508260046000876000191660001916815260200190815260200160002060020160006101000a81548163ffffffff021916908363ffffffff160217905550816004600087600019166000191681526020019081526020016000206003019080519060200190610ea392919061226e565b50600160058690806001815401808255809150509060018203906000526020600020016000909192909190915090600019169055036004600087600019166000191681526020019081526020016000206004018190555060019050949350505050565b6000610f1182611592565b1515610f1c57600080fd5b600460008360001916600019168152602001908152602001600020600501805490509050919050565b6000600360149054906101000a900460ff16905090565b60006060610f6985611613565b151515610f7557600080fd5b610f7e83611592565b1515610f8957600080fd5b6000602060ff16111515610f9c57600080fd5b83905060008151111515610faf57600080fd5b60046000846000191660001916815260200190815260200160002060020160009054906101000a900463ffffffff1663ffffffff16610fed3361120b565b10151515610ffa57600080fd5b61103f6110056113d6565b60046000866000191660001916815260200190815260200160002060020160009054906101000a900463ffffffff1663ffffffff166114c1565b5084600660008760001916600019168152602001908152602001600020600001816000191690555083600660008760001916600019168152602001908152602001600020600101908051906020019061109992919061226e565b5060016007869080600181540180825580915050906001820390600052602060002001600090919290919091509060001916905503600660008760001916600019168152602001908152602001600020600201819055503360066000876000191660001916815260200190815260200160002060030160006101000a81548173ffffffffffffffffffffffffffffffffffffffff021916908373ffffffffffffffffffffffffffffffffffffffff1602179055508260066000876000191660001916815260200190815260200160002060040181600019169055506001600460008560001916600019168152602001908152602001600020600501869080600181540180825580915050906001820390600052602060002001600090919290919091509060001916905503600460008560001916600019168152602001908152602001600020600601600087600019166000191681526020019081526020016000208190555060019150509392505050565b60008060008373ffffffffffffffffffffffffffffffffffffffff1673ffffffffffffffffffffffffffffffffffffffff168152602001908152602001600020549050919050565b61125b611400565b151561126657600080fd5b600073ffffffffffffffffffffffffffffffffffffffff16600360009054906101000a900473ffffffffffffffffffffffffffffffffffffffff1673ffffffffffffffffffffffffffffffffffffffff167f8be0079c531659141344cd1fd0a4f28419497f9722a3daafe3b4186f6b6457e060405160405180910390a36000600360006101000a81548173ffffffffffffffffffffffffffffffffffffffff021916908373ffffffffffffffffffffffffffffffffffffffff160217905550565b61132f611400565b151561133a57600080fd5b600360149054906101000a900460ff1615151561135657600080fd5b6001600360146101000a81548160ff0219169083151502179055507f62e78cea01bee320cd4e420270b5ea74000d11b0c9f74754ebdbfc544b05a25833604051808273ffffffffffffffffffffffffffffffffffffffff1673ffffffffffffffffffffffffffffffffffffffff16815260200191505060405180910390a1565b6000600360009054906101000a900473ffffffffffffffffffffffffffffffffffffffff16905090565b6000600360009054906101000a900473ffffffffffffffffffffffffffffffffffffffff1673ffffffffffffffffffffffffffffffffffffffff163373ffffffffffffffffffffffffffffffffffffffff1614905090565b6040805190810160405280600381526020017f535344000000000000000000000000000000000000000000000000000000000081525081565b6000600360149054906101000a900460ff161515156114af57600080fd5b6114b98383611ee2565b905092915050565b6000600360149054906101000a900460ff161515156114df57600080fd5b6114e98383612119565b905092915050565b6000600780549050905090565b6000600160008473ffffffffffffffffffffffffffffffffffffffff1673ffffffffffffffffffffffffffffffffffffffff16815260200190815260200160002060008373ffffffffffffffffffffffffffffffffffffffff1673ffffffffffffffffffffffffffffffffffffffff16815260200190815260200160002054905092915050565b6000600580549050905090565b60008060058054905014156115aa57600090506115ef565b81600019166005600460008560001916600019168152602001908152602001600020600401548154811015156115dc57fe5b9060005260206000200154600019161490505b919050565b6115fc611400565b151561160757600080fd5b61161081612130565b50565b600080600780549050141561162b5760009050611670565b816000191660076006600085600019166000191681526020019081526020016000206002015481548110151561165d57fe5b9060005260206000200154600019161490505b919050565b6000808473ffffffffffffffffffffffffffffffffffffffff1673ffffffffffffffffffffffffffffffffffffffff1681526020019081526020016000205481111515156116c257600080fd5b600073ffffffffffffffffffffffffffffffffffffffff168273ffffffffffffffffffffffffffffffffffffffff16141515156116fe57600080fd5b61174f816000808673ffffffffffffffffffffffffffffffffffffffff1673ffffffffffffffffffffffffffffffffffffffff1681526020019081526020016000205461222c90919063ffffffff16565b6000808573ffffffffffffffffffffffffffffffffffffffff1673ffffffffffffffffffffffffffffffffffffffff168152602001908152602001600020819055506117e2816000808573ffffffffffffffffffffffffffffffffffffffff1673ffffffffffffffffffffffffffffffffffffffff1681526020019081526020016000205461224d90919063ffffffff16565b6000808473ffffffffffffffffffffffffffffffffffffffff1673ffffffffffffffffffffffffffffffffffffffff168152602001908152602001600020819055508173ffffffffffffffffffffffffffffffffffffffff168373ffffffffffffffffffffffffffffffffffffffff167fddf252ad1be2c89b69c2b068fc378daa952ba7f163c4a11628f55a4df523b3ef836040518082815260200191505060405180910390a3505050565b60008073ffffffffffffffffffffffffffffffffffffffff168373ffffffffffffffffffffffffffffffffffffffff16141515156118cb57600080fd5b81600160003373ffffffffffffffffffffffffffffffffffffffff1673ffffffffffffffffffffffffffffffffffffffff16815260200190815260200160002060008573ffffffffffffffffffffffffffffffffffffffff1673ffffffffffffffffffffffffffffffffffffffff168152602001908152602001600020819055508273ffffffffffffffffffffffffffffffffffffffff163373ffffffffffffffffffffffffffffffffffffffff167f8c5be1e5ebec7d5bd14f71427d1e84f3dd0314c0f7b2291e5b200ac8c7c3b925846040518082815260200191505060405180910390a36001905092915050565b6000600160008573ffffffffffffffffffffffffffffffffffffffff1673ffffffffffffffffffffffffffffffffffffffff16815260200190815260200160002060003373ffffffffffffffffffffffffffffffffffffffff1673ffffffffffffffffffffffffffffffffffffffff168152602001908152602001600020548211151515611a4857600080fd5b611ad782600160008773ffffffffffffffffffffffffffffffffffffffff1673ffffffffffffffffffffffffffffffffffffffff16815260200190815260200160002060003373ffffffffffffffffffffffffffffffffffffffff1673ffffffffffffffffffffffffffffffffffffffff1681526020019081526020016000205461222c90919063ffffffff16565b600160008673ffffffffffffffffffffffffffffffffffffffff1673ffffffffffffffffffffffffffffffffffffffff16815260200190815260200160002060003373ffffffffffffffffffffffffffffffffffffffff1673ffffffffffffffffffffffffffffffffffffffff16815260200190815260200160002081905550611b62848484611675565b600190509392505050565b60008073ffffffffffffffffffffffffffffffffffffffff168373ffffffffffffffffffffffffffffffffffffffff1614151515611baa57600080fd5b611c3982600160003373ffffffffffffffffffffffffffffffffffffffff1673ffffffffffffffffffffffffffffffffffffffff16815260200190815260200160002060008673ffffffffffffffffffffffffffffffffffffffff1673ffffffffffffffffffffffffffffffffffffffff1681526020019081526020016000205461224d90919063ffffffff16565b600160003373ffffffffffffffffffffffffffffffffffffffff1673ffffffffffffffffffffffffffffffffffffffff16815260200190815260200160002060008573ffffffffffffffffffffffffffffffffffffffff1673ffffffffffffffffffffffffffffffffffffffff168152602001908152602001600020819055508273ffffffffffffffffffffffffffffffffffffffff163373ffffffffffffffffffffffffffffffffffffffff167f8c5be1e5ebec7d5bd14f71427d1e84f3dd0314c0f7b2291e5b200ac8c7c3b925600160003373ffffffffffffffffffffffffffffffffffffffff1673ffffffffffffffffffffffffffffffffffffffff16815260200190815260200160002060008773ffffffffffffffffffffffffffffffffffffffff1673ffffffffffffffffffffffffffffffffffffffff168152602001908152602001600020546040518082815260200191505060405180910390a36001905092915050565b60008273ffffffffffffffffffffffffffffffffffffffff1614151515611dca57600080fd5b611ddf8160025461224d90919063ffffffff16565b600281905550611e36816000808573ffffffffffffffffffffffffffffffffffffffff1673ffffffffffffffffffffffffffffffffffffffff1681526020019081526020016000205461224d90919063ffffffff16565b6000808473ffffffffffffffffffffffffffffffffffffffff1673ffffffffffffffffffffffffffffffffffffffff168152602001908152602001600020819055508173ffffffffffffffffffffffffffffffffffffffff16600073ffffffffffffffffffffffffffffffffffffffff167fddf252ad1be2c89b69c2b068fc378daa952ba7f163c4a11628f55a4df523b3ef836040518082815260200191505060405180910390a35050565b60008073ffffffffffffffffffffffffffffffffffffffff168373ffffffffffffffffffffffffffffffffffffffff1614151515611f1f57600080fd5b611fae82600160003373ffffffffffffffffffffffffffffffffffffffff1673ffffffffffffffffffffffffffffffffffffffff16815260200190815260200160002060008673ffffffffffffffffffffffffffffffffffffffff1673ffffffffffffffffffffffffffffffffffffffff1681526020019081526020016000205461222c90919063ffffffff16565b600160003373ffffffffffffffffffffffffffffffffffffffff1673ffffffffffffffffffffffffffffffffffffffff16815260200190815260200160002060008573ffffffffffffffffffffffffffffffffffffffff1673ffffffffffffffffffffffffffffffffffffffff168152602001908152602001600020819055508273ffffffffffffffffffffffffffffffffffffffff163373ffffffffffffffffffffffffffffffffffffffff167f8c5be1e5ebec7d5bd14f71427d1e84f3dd0314c0f7b2291e5b200ac8c7c3b925600160003373ffffffffffffffffffffffffffffffffffffffff1673ffffffffffffffffffffffffffffffffffffffff16815260200190815260200160002060008773ffffffffffffffffffffffffffffffffffffffff1673ffffffffffffffffffffffffffffffffffffffff168152602001908152602001600020546040518082815260200191505060405180910390a36001905092915050565b6000612126338484611675565b6001905092915050565b600073ffffffffffffffffffffffffffffffffffffffff168173ffffffffffffffffffffffffffffffffffffffff161415151561216c57600080fd5b8073ffffffffffffffffffffffffffffffffffffffff16600360009054906101000a900473ffffffffffffffffffffffffffffffffffffffff1673ffffffffffffffffffffffffffffffffffffffff167f8be0079c531659141344cd1fd0a4f28419497f9722a3daafe3b4186f6b6457e060405160405180910390a380600360006101000a81548173ffffffffffffffffffffffffffffffffffffffff021916908373ffffffffffffffffffffffffffffffffffffffff16021790555050565b60008083831115151561223e57600080fd5b82840390508091505092915050565b600080828401905083811015151561226457600080fd5b8091505092915050565b828054600181600116156101000203166002900490600052602060002090601f016020900481019282601f106122af57805160ff19168380011785556122dd565b828001600101855582156122dd579182015b828111156122dc5782518255916020019190600101906122c1565b5b5090506122ea91906122ee565b5090565b61231091905b8082111561230c5760008160009055506001016122f4565b5090565b905600a165627a7a72305820dbe3a3a362b086eaed7f3f2d4bbacdb1bcecebd550f168df55c9f6dc828d98c40029",
  "source": "pragma solidity ^0.4.24;\n\n/**\n * @title ERC20 interface\n * @dev see https://github.com/ethereum/EIPs/issues/20\n */\ninterface IERC20 {\n  function totalSupply() external view returns (uint256);\n\n  function balanceOf(address who) external view returns (uint256);\n\n  function allowance(address owner, address spender)\n    external view returns (uint256);\n\n  function transfer(address to, uint256 value) external returns (bool);\n\n  function approve(address spender, uint256 value)\n    external returns (bool);\n\n  function transferFrom(address from, address to, uint256 value)\n    external returns (bool);\n\n  event Transfer(\n    address indexed from,\n    address indexed to,\n    uint256 value\n  );\n\n  event Approval(\n    address indexed owner,\n    address indexed spender,\n    uint256 value\n  );\n}\n\n/**\n * @title SafeMath\n * @dev Math operations with safety checks that revert on error\n */\nlibrary SafeMath {\n\n  /**\n  * @dev Multiplies two numbers, reverts on overflow.\n  */\n  function mul(uint256 a, uint256 b) internal pure returns (uint256) {\n    // Gas optimization: this is cheaper than requiring 'a' not being zero, but the\n    // benefit is lost if 'b' is also tested.\n    // See: https://github.com/OpenZeppelin/openzeppelin-solidity/pull/522\n    if (a == 0) {\n      return 0;\n    }\n\n    uint256 c = a * b;\n    require(c / a == b);\n\n    return c;\n  }\n\n  /**\n  * @dev Integer division of two numbers truncating the quotient, reverts on division by zero.\n  */\n  function div(uint256 a, uint256 b) internal pure returns (uint256) {\n    require(b > 0); // Solidity only automatically asserts when dividing by 0\n    uint256 c = a / b;\n    // assert(a == b * c + a % b); // There is no case in which this doesn't hold\n\n    return c;\n  }\n\n  /**\n  * @dev Subtracts two numbers, reverts on overflow (i.e. if subtrahend is greater than minuend).\n  */\n  function sub(uint256 a, uint256 b) internal pure returns (uint256) {\n    require(b <= a);\n    uint256 c = a - b;\n\n    return c;\n  }\n\n  /**\n  * @dev Adds two numbers, reverts on overflow.\n  */\n  function add(uint256 a, uint256 b) internal pure returns (uint256) {\n    uint256 c = a + b;\n    require(c >= a);\n\n    return c;\n  }\n\n  /**\n  * @dev Divides two numbers and returns the remainder (unsigned integer modulo),\n  * reverts when dividing by zero.\n  */\n  function mod(uint256 a, uint256 b) internal pure returns (uint256) {\n    require(b != 0);\n    return a % b;\n  }\n}\n\n/**\n * @title Standard ERC20 token\n *\n * @dev Implementation of the basic standard token.\n * https://github.com/ethereum/EIPs/blob/master/EIPS/eip-20.md\n * Originally based on code by FirstBlood: https://github.com/Firstbloodio/token/blob/master/smart_contract/FirstBloodToken.sol\n */\ncontract ERC20 is IERC20 {\n  using SafeMath for uint256;\n\n  mapping (address => uint256) private _balances;\n\n  mapping (address => mapping (address => uint256)) private _allowed;\n\n  uint256 private _totalSupply;\n\n  /**\n  * @dev Total number of tokens in existence\n  */\n  function totalSupply() public view returns (uint256) {\n    return _totalSupply;\n  }\n\n  /**\n  * @dev Gets the balance of the specified address.\n  * @param owner The address to query the balance of.\n  * @return An uint256 representing the amount owned by the passed address.\n  */\n  function balanceOf(address owner) public view returns (uint256) {\n    return _balances[owner];\n  }\n\n  /**\n   * @dev Function to check the amount of tokens that an owner allowed to a spender.\n   * @param owner address The address which owns the funds.\n   * @param spender address The address which will spend the funds.\n   * @return A uint256 specifying the amount of tokens still available for the spender.\n   */\n  function allowance(\n    address owner,\n    address spender\n   )\n    public\n    view\n    returns (uint256)\n  {\n    return _allowed[owner][spender];\n  }\n\n  /**\n  * @dev Transfer token for a specified address\n  * @param to The address to transfer to.\n  * @param value The amount to be transferred.\n  */\n  function transfer(address to, uint256 value) public returns (bool) {\n    _transfer(msg.sender, to, value);\n    return true;\n  }\n\n  /**\n   * @dev Approve the passed address to spend the specified amount of tokens on behalf of msg.sender.\n   * Beware that changing an allowance with this method brings the risk that someone may use both the old\n   * and the new allowance by unfortunate transaction ordering. One possible solution to mitigate this\n   * race condition is to first reduce the spender's allowance to 0 and set the desired value afterwards:\n   * https://github.com/ethereum/EIPs/issues/20#issuecomment-263524729\n   * @param spender The address which will spend the funds.\n   * @param value The amount of tokens to be spent.\n   */\n  function approve(address spender, uint256 value) public returns (bool) {\n    require(spender != address(0));\n\n    _allowed[msg.sender][spender] = value;\n    emit Approval(msg.sender, spender, value);\n    return true;\n  }\n\n  /**\n   * @dev Transfer tokens from one address to another\n   * @param from address The address which you want to send tokens from\n   * @param to address The address which you want to transfer to\n   * @param value uint256 the amount of tokens to be transferred\n   */\n  function transferFrom(\n    address from,\n    address to,\n    uint256 value\n  )\n    public\n    returns (bool)\n  {\n    require(value <= _allowed[from][msg.sender]);\n\n    _allowed[from][msg.sender] = _allowed[from][msg.sender].sub(value);\n    _transfer(from, to, value);\n    return true;\n  }\n\n  /**\n   * @dev Increase the amount of tokens that an owner allowed to a spender.\n   * approve should be called when allowed_[_spender] == 0. To increment\n   * allowed value is better to use this function to avoid 2 calls (and wait until\n   * the first transaction is mined)\n   * From MonolithDAO Token.sol\n   * @param spender The address which will spend the funds.\n   * @param addedValue The amount of tokens to increase the allowance by.\n   */\n  function increaseAllowance(\n    address spender,\n    uint256 addedValue\n  )\n    public\n    returns (bool)\n  {\n    require(spender != address(0));\n\n    _allowed[msg.sender][spender] = (\n      _allowed[msg.sender][spender].add(addedValue));\n    emit Approval(msg.sender, spender, _allowed[msg.sender][spender]);\n    return true;\n  }\n\n  /**\n   * @dev Decrease the amount of tokens that an owner allowed to a spender.\n   * approve should be called when allowed_[_spender] == 0. To decrement\n   * allowed value is better to use this function to avoid 2 calls (and wait until\n   * the first transaction is mined)\n   * From MonolithDAO Token.sol\n   * @param spender The address which will spend the funds.\n   * @param subtractedValue The amount of tokens to decrease the allowance by.\n   */\n  function decreaseAllowance(\n    address spender,\n    uint256 subtractedValue\n  )\n    public\n    returns (bool)\n  {\n    require(spender != address(0));\n\n    _allowed[msg.sender][spender] = (\n      _allowed[msg.sender][spender].sub(subtractedValue));\n    emit Approval(msg.sender, spender, _allowed[msg.sender][spender]);\n    return true;\n  }\n\n  /**\n  * @dev Transfer token for a specified addresses\n  * @param from The address to transfer from.\n  * @param to The address to transfer to.\n  * @param value The amount to be transferred.\n  */\n  function _transfer(address from, address to, uint256 value) internal {\n    require(value <= _balances[from]);\n    require(to != address(0));\n\n    _balances[from] = _balances[from].sub(value);\n    _balances[to] = _balances[to].add(value);\n    emit Transfer(from, to, value);\n  }\n\n  /**\n   * @dev Internal function that mints an amount of the token and assigns it to\n   * an account. This encapsulates the modification of balances such that the\n   * proper events are emitted.\n   * @param account The account that will receive the created tokens.\n   * @param value The amount that will be created.\n   */\n  function _mint(address account, uint256 value) internal {\n    require(account != 0);\n    _totalSupply = _totalSupply.add(value);\n    _balances[account] = _balances[account].add(value);\n    emit Transfer(address(0), account, value);\n  }\n\n  /**\n   * @dev Internal function that burns an amount of the token of a given\n   * account.\n   * @param account The account whose tokens will be burnt.\n   * @param value The amount that will be burnt.\n   */\n  function _burn(address account, uint256 value) internal {\n    require(account != 0);\n    require(value <= _balances[account]);\n\n    _totalSupply = _totalSupply.sub(value);\n    _balances[account] = _balances[account].sub(value);\n    emit Transfer(account, address(0), value);\n  }\n\n  /**\n   * @dev Internal function that burns an amount of the token of a given\n   * account, deducting from the sender's allowance for said account. Uses the\n   * internal burn function.\n   * @param account The account whose tokens will be burnt.\n   * @param value The amount that will be burnt.\n   */\n  function _burnFrom(address account, uint256 value) internal {\n    require(value <= _allowed[account][msg.sender]);\n\n    // Should https://github.com/OpenZeppelin/zeppelin-solidity/issues/707 be accepted,\n    // this function needs to emit an event with the updated approval.\n    _allowed[account][msg.sender] = _allowed[account][msg.sender].sub(\n      value);\n    _burn(account, value);\n  }\n}\n\ncontract Ownable {\n  address private _owner;\n\n  event OwnershipTransferred(\n    address indexed previousOwner,\n    address indexed newOwner\n  );\n\n  /**\n   * @dev The Ownable constructor sets the original `owner` of the contract to the sender\n   * account.\n   */\n  constructor() internal {\n    _owner = msg.sender;\n    emit OwnershipTransferred(address(0), _owner);\n  }\n\n  /**\n   * @return the address of the owner.\n   */\n  function owner() public view returns(address) {\n    return _owner;\n  }\n\n  /**\n   * @dev Throws if called by any account other than the owner.\n   */\n  modifier onlyOwner() {\n    require(isOwner());\n    _;\n  }\n\n  /**\n   * @return true if `msg.sender` is the owner of the contract.\n   */\n  function isOwner() public view returns(bool) {\n    return msg.sender == _owner;\n  }\n\n  /**\n   * @dev Allows the current owner to relinquish control of the contract.\n   * @notice Renouncing to ownership will leave the contract without an owner.\n   * It will not be possible to call the functions with the `onlyOwner`\n   * modifier anymore.\n   */\n  function renounceOwnership() public onlyOwner {\n    emit OwnershipTransferred(_owner, address(0));\n    _owner = address(0);\n  }\n\n  /**\n   * @dev Allows the current owner to transfer control of the contract to a newOwner.\n   * @param newOwner The address to transfer ownership to.\n   */\n  function transferOwnership(address newOwner) public onlyOwner {\n    _transferOwnership(newOwner);\n  }\n\n  /**\n   * @dev Transfers control of the contract to a newOwner.\n   * @param newOwner The address to transfer ownership to.\n   */\n  function _transferOwnership(address newOwner) internal {\n    require(newOwner != address(0));\n    emit OwnershipTransferred(_owner, newOwner);\n    _owner = newOwner;\n  }\n}\n\n/**\n * @title Pausable\n * @dev Base contract which allows children to implement an emergency stop mechanism.\n */\ncontract Pausable is Ownable {\n  event Paused(address account);\n  event Unpaused(address account);\n\n  bool private _paused;\n\n  constructor() internal {\n    _paused = false;\n  }\n\n  /**\n   * @return true if the contract is paused, false otherwise.\n   */\n  function paused() public view returns(bool) {\n    return _paused;\n  }\n\n  /**\n   * @dev Modifier to make a function callable only when the contract is not paused.\n   */\n  modifier whenNotPaused() {\n    require(!_paused);\n    _;\n  }\n\n  /**\n   * @dev Modifier to make a function callable only when the contract is paused.\n   */\n  modifier whenPaused() {\n    require(_paused);\n    _;\n  }\n\n  /**\n   * @dev called by the owner to pause, triggers stopped state\n   */\n  function pause() public onlyOwner whenNotPaused {\n    _paused = true;\n    emit Paused(msg.sender);\n  }\n\n  /**\n   * @dev called by the owner to unpause, returns to normal state\n   */\n  function unpause() public onlyOwner whenPaused {\n    _paused = false;\n    emit Unpaused(msg.sender);\n  }\n}\n\n/**\n * @title Pausable token\n * @dev ERC20 modified with pausable transfers.\n **/\ncontract ERC20Pausable is ERC20, Pausable {\n\n  function transfer(\n    address to,\n    uint256 value\n  )\n    public\n    whenNotPaused\n    returns (bool)\n  {\n    return super.transfer(to, value);\n  }\n\n  function transferFrom(\n    address from,\n    address to,\n    uint256 value\n  )\n    public\n    whenNotPaused\n    returns (bool)\n  {\n    return super.transferFrom(from, to, value);\n  }\n\n  function approve(\n    address spender,\n    uint256 value\n  )\n    public\n    whenNotPaused\n    returns (bool)\n  {\n    return super.approve(spender, value);\n  }\n\n  function increaseAllowance(\n    address spender,\n    uint addedValue\n  )\n    public\n    whenNotPaused\n    returns (bool success)\n  {\n    return super.increaseAllowance(spender, addedValue);\n  }\n\n  function decreaseAllowance(\n    address spender,\n    uint subtractedValue\n  )\n    public\n    whenNotPaused\n    returns (bool success)\n  {\n    return super.decreaseAllowance(spender, subtractedValue);\n  }\n}\n\n/**\n * @title StampDuty\n * @dev A new class for stamp duty called StampDuty\n * @dev \n */\ncontract StampDuty is Ownable, ERC20Pausable {\n    /**\n    * @dev zeroAddress can be used to burn tokens that have been received and audited.\n    * @param zeroAddress is unusable\n    */    \n    address constant public zeroAddress = 0x0000000000000000000000000000000000000000;\n    \n    /**\n    * @dev Referential Integrity check https://medium.com/@robhitchens/enforcing-referential-integrity-in-ethereum-smart-contracts-a9ab1427ff42\n    * @dev StampParam contains system parameters\n    * @dev StampParam can only be modified by owner\n    * @param StampCode is the unique code for the stamp and the primary key.\n    * @param StampName is the name of the stamp in human readable format\n    * @param StampPrice is the price of the stamp, in integer\n    * @param RegulationReference is the reference to a specific tax regulation\n    */  \n    struct StampParam {\n        bytes32 StampCode;\n        string StampName;\n        uint32 StampPrice;\n        string RegulationReference;\n        uint StampIndex;\n        /**\n         * @dev To support deletion and keeps the referential integrity\n         * @param PayParamDocHash is to refer to Document hash\n         * @param PayIndexPointers refers to the payment details\n        */\n        bytes32[] PayCode;\n        mapping (bytes32 => uint256) PayIndexPointers;\n    }\n    /**\n     * @param StampStructs is for indexing based on StampName\n     * @param StampList is for sequential access based on StampCode to get the stamp row data\n    */\n    mapping (bytes32 => StampParam) StampStructs;\n    bytes32[] StampList;\n    \n    /**\n    * @dev PayParam is to store payment detail\n    * @param PayCode is the payment code generated by the system. It can be a hash of document hash, payer address, and timestamp. This is the primary key and unique.\n    * @param DocHash is the hash value of the document. DocHash is not unique.\n    * @param PayIndex is the index of the payment\n    * @param Payer is the address of the Payer\n    * @param StampIndex refers to the StampParam\n    */ \n    struct PayParam {\n        bytes32 PayCode;\n        string DocHash;\n        uint256 PayIndex;\n        address Payer;\n        bytes32 StampCode;\n    }\n    \n    mapping (bytes32 => PayParam) PayStructs;\n    bytes32[] PayList;\n    \n    /**\n     * @dev getStampCount counts the number of stamp types\n     */\n    function getStampCount() public constant returns (uint stampCount) {\n        return StampList.length;\n    }\n    \n    /**\n     * @dev getPaymentCount counts the number of payments\n     */\n    function getPaymentCount() public constant returns (uint paymentCount) {\n        return PayList.length;\n    }\n    \n    /**\n     * @dev isStamp checks if the stamp is valid\n     */\n    function isStamp (bytes32 stampCode) public constant returns (bool isIndeed) {\n        if (StampList.length == 0) return false;\n        return StampList[StampStructs[stampCode].StampIndex] == stampCode;\n    }\n    \n    /**\n     * @dev isPayment checks if a particular payment code exists\n     */\n    function isPayment (bytes32 payCode) public constant returns (bool isIndeed) {\n        if (PayList.length == 0) return false;\n        return PayList[PayStructs[payCode].PayIndex] == payCode;\n    }\n    \n    /**\n     * @dev getPaymentOfStampCount counts payments based on a specific StampName\n     */\n    function getPaymentOfStampCount(bytes32 stampCode) public constant returns (uint paymentOfStampCount) {\n        //deprecated if(!isStamp(StampName)) throw;\n        require(isStamp(stampCode));\n        return StampStructs[stampCode].PayCode.length;\n    }\n    \n    /**\n     * @dev getPaymentOfStampAtIndex payments based on a specific StampName\n     */\n    function getPaymentOfStampAtIndex(bytes32 stampCode, uint row) public constant returns (bytes32 paymentCode) {\n        require(isStamp(stampCode));\n        return StampStructs[stampCode].PayCode[row];\n    }\n    \n    /**\n     * @dev createStamp creates a new stamp, only owner can do this\n     */\n    function createStamp(bytes32 stampCode, string stampName, uint32 stampPrice, string regulationReference) public onlyOwner returns (bool success) {\n        //prevent duplicate\n        require(!isStamp(stampCode));\n        //add new data\n        /**\n        bytes32 StampCode;\n        string StampName;\n        uint32 StampPrice;\n        string RegulationReference;\n        uint StampIndex;\n         */\n        StampStructs[stampCode].StampCode = stampCode;\n        StampStructs[stampCode].StampName = stampName;\n        StampStructs[stampCode].StampPrice = stampPrice;\n        StampStructs[stampCode].RegulationReference = regulationReference;\n        StampStructs[stampCode].StampIndex = StampList.push(stampCode) - 1;\n        \n        /**\n         * @Todo should add Event here\n         */\n        return true;\n    }\n    \n    /**\n     * @dev createPayment creates a new payment\n     */\n    function createPayment(bytes32 payCode, string docHash, bytes32 stampCode) public returns (bool success) {\n        //prevent duplicate\n        require(!isPayment(payCode));\n        //check referential integrity for stampCode\n        require(isStamp(stampCode));\n        //check payCode cannot empty\n        require(payCode.length > 0);\n        //check dochHash cannot empty\n        bytes memory tempDocHash = bytes(docHash);\n        require(tempDocHash.length > 0);\n        //require the balance to be enough to pay the stamp price\n        require(balanceOf(msg.sender) >= StampStructs[stampCode].StampPrice);\n        //pay the stamp duty to the smart contract owner\n        transfer(owner(), StampStructs[stampCode].StampPrice);\n\n        /**\n        bytes32 PayCode;\n        string DocHash;\n        uint256 PayIndex;\n        address Payer;\n        bytes32 StampCode;\n         */\n        PayStructs[payCode].PayCode = payCode;\n        PayStructs[payCode].DocHash = docHash;\n        PayStructs[payCode].PayIndex = PayList.push(payCode) - 1;\n        PayStructs[payCode].Payer = msg.sender;\n        PayStructs[payCode].StampCode = stampCode;\n        //maintain new payment in Stamp data\n        StampStructs[stampCode].PayIndexPointers[payCode] = StampStructs[stampCode].PayCode.push(payCode) - 1;\n        /**\n         * @Todo should add Event here\n         */\n        return true;\n    }\n    \n    /**\n     * @Todo create functions to modify and delete stamp\n     * @Todo modify and delete payment might not be needed\n     */\n    \n    \n    /**\n     * @dev A function to burn tokens to constant address zeroAddress.\n     */\n    function _burnToZeroAddress(uint256 value) public onlyOwner returns (bool) {\n    _transfer(msg.sender, zeroAddress, value);\n    return true;\n  }\n    \n}\n\n/**\n * @title Smart Stamp Duty Token\n * @dev ERC20 Tokens\n */\ncontract SmartStampDuty is StampDuty {\n\n  string public constant name = \"Smart Stamp Duty\";\n  string public constant symbol = \"SSD\";\n  uint8 public constant decimals = 0;\n\n  /**\n   * @dev Initial supply will be  10 trillion or 10*10**12\n   * @dev Each SSD represents 1 Rupiah, hence the total amount of SSD received represents tax money\n   * @dev The number of available SSD can be increased further by mint function\n   * @dev No decimal is required\n   */ \n  uint256 public constant INITIAL_SUPPLY = 10*10**12 * (10 ** uint256(decimals));\n\n  /**\n   * @dev Constructor that gives msg.sender all of existing tokens.\n   */\n  constructor() public {\n    _mint(msg.sender, INITIAL_SUPPLY);\n  }\n\n\n  /**\n   * @dev Enable minting\n   */ \n  function mint(address account, uint256 value) public {\n    _mint(account, value);\n  }\n  \n  /**\n   * @dev Enable send coins to zeroAddress\n   */ \n  function burnToZeroAddress(uint256 value) public {\n    _burnToZeroAddress(value);\n  }\n\n}\n",
  "sourcePath": "/home/sonicskye/Ethereum/TruffleProjects/SmartStampDuty/contracts/SmartStampDuty.sol",
  "compiler": {
    "name": "solc",
    "version": "0.4.24+commit.e67f0147.Emscripten.clang"
  },
  "schemaVersion": "2.0.1",
  "updatedAt": "2018-11-13T11:43:54.073Z"
}